{
  "transactions": [
    {
      "hash": "0xb41b0a2909a14cc37cbd27ab042708a0199e1681875ab90ff9280af145aefd60",
      "transactionType": "CALL",
      "contractName": null,
      "contractAddress": "0x7924baa09858808012c6f93660095b630cc74d06",
      "function": "sayHello(string)",
      "arguments": [
        "I love indexing :)"
      ],
      "transaction": {
        "from": "0xdb816889f2a7362ef242e5a717dfd5b38ae849fe",
        "to": "0x7924baa09858808012c6f93660095b630cc74d06",
        "gas": "0x8d0c",
        "value": "0x0",
        "input": "0xc3a9b1c50000000000000000000000000000000000000000000000000000000000000020000000000000000000000000000000000000000000000000000000000000001249206c6f766520696e646578696e67203a290000000000000000000000000000",
        "nonce": "0x13",
        "chainId": "0x2105"
      },
      "additionalContracts": [],
      "isFixedGasLimit": false
    }
  ],
  "receipts": [
    {
      "status": "0x1",
      "cumulativeGasUsed": "0x27b6e0c",
      "logs": [
        {
          "address": "0x7924baa09858808012c6f93660095b630cc74d06",
          "topics": [
            "0xe551552bbc74b74a73751b3d53fcd5e75d70b29c64d2f37dc1fea936a0aa1463",
            "0x000000000000000000000000db816889f2a7362ef242e5a717dfd5b38ae849fe"
          ],
          "data": "0x0000000000000000000000000000000000000000000000000000000000000040000000000000000000000000000000000000000000000000000000006840b8fd000000000000000000000000000000000000000000000000000000000000001249206c6f766520696e646578696e67203a290000000000000000000000000000",
          "blockHash": "0x1a73ccb86048e0330ed0cf73192abf8b186be1f97e653052b59a6655af09ebe5",
          "blockNumber": "0x1db2e0d",
          "blockTimestamp": "0x6840b8fd",
          "transactionHash": "0xb41b0a2909a14cc37cbd27ab042708a0199e1681875ab90ff9280af145aefd60",
          "transactionIndex": "0x97",
          "logIndex": "0x25b",
          "removed": false
        }
      ],
      "logsBloom": "0x00800000000000000000000000000000000000000000000000000000000000000000000000000000000000000000000000000000000000000000000000000000000000000000000000000000000000000000000000000000000000000000000000000000000000000000000100000000000000000000000000001000000000000000000000080400000000000000000000000000000000000000000400000000000000000002000000000000000000000000020000000000000000000000000000000000000000000000000000000000000000000000000000000000000000000000000000000000000000000000000000000000000000000000010000000000",
      "type": "0x2",
      "transactionHash": "0xb41b0a2909a14cc37cbd27ab042708a0199e1681875ab90ff9280af145aefd60",
      "transactionIndex": "0x97",
      "blockHash": "0x1a73ccb86048e0330ed0cf73192abf8b186be1f97e653052b59a6655af09ebe5",
      "blockNumber": "0x1db2e0d",
      "gasUsed": "0x6072",
      "effectiveGasPrice": "0xed3fb",
      "from": "0xdb816889f2a7362ef242e5a717dfd5b38ae849fe",
      "to": "0x7924baa09858808012c6f93660095b630cc74d06",
      "contractAddress": null,
      "l1BaseFeeScalar": "0x8dd",
      "l1BlobBaseFee": "0x1",
      "l1BlobBaseFeeScalar": "0x101c12",
      "l1Fee": "0x4ddb6261c",
      "l1GasPrice": "0x1572226d1",
      "l1GasUsed": "0x640"
    }
  ],
  "libraries": [],
  "pending": [],
  "returns": {},
  "timestamp": 1749072129,
  "chain": 8453,
  "commit": "4a2d4be"
}