{
  "transactions": [
    {
      "hash": "0x401433126f9225711f061abbedb0b53a894105ab52ca102d50b8b79a4c7f2d83",
      "transactionType": "CALL",
      "contractName": null,
      "contractAddress": "0x3f19e98ce7a5b28427d9923bb304032c2a04364a",
      "function": "logMessage(string)",
      "arguments": [
        "I love indexing :)"
      ],
      "transaction": {
        "from": "0xdb816889f2a7362ef242e5a717dfd5b38ae849fe",
        "to": "0x3f19e98ce7a5b28427d9923bb304032c2a04364a",
        "gas": "0x8526",
        "value": "0x0",
        "input": "0x7c9900520000000000000000000000000000000000000000000000000000000000000020000000000000000000000000000000000000000000000000000000000000001249206c6f766520696e646578696e67203a290000000000000000000000000000",
        "nonce": "0x24",
        "chainId": "0x2105"
      },
      "additionalContracts": [],
      "isFixedGasLimit": false
    }
  ],
  "receipts": [
    {
      "status": "0x1",
      "cumulativeGasUsed": "0x3a2b644",
      "logs": [
        {
          "address": "0x3f19e98ce7a5b28427d9923bb304032c2a04364a",
          "topics": [
            "0x4bba44446aea2a9f27db36c95346239fd392bf3a497349684a3890d0d764077d",
            "0x000000000000000000000000db816889f2a7362ef242e5a717dfd5b38ae849fe"
          ],
          "data": "0x00000000000000000000000000000000000000000000000000000000000000400000000000000000000000000000000000000000000000000000000068423fa1000000000000000000000000000000000000000000000000000000000000001249206c6f766520696e646578696e67203a290000000000000000000000000000",
          "blockHash": "0x39aa52295eb92ee3de7358f109ab1fec8f3158423cd5fffd782a46c91ec726fc",
          "blockNumber": "0x1dbf15f",
          "blockTimestamp": "0x68423fa1",
          "transactionHash": "0x401433126f9225711f061abbedb0b53a894105ab52ca102d50b8b79a4c7f2d83",
          "transactionIndex": "0xb8",
          "logIndex": "0x428",
          "removed": false
        }
      ],
      "logsBloom": "0x00800000000000000000000000000000000000000000000000000000000000000000000000800000000000000000000000000000000000000000000000000004000000000000000000000000000000000002000000000000000000000400000000000000000000000000000000000080000000000000000000000000000000000000000000080000000000000000000000000000000000000000000000000000000000000002000000000000000000000000000000000000000000000000000000000000000000000000000000000000000000000000000000000000000000000000000000000000000000200000000000000000000000000000000000000000",
      "type": "0x2",
      "transactionHash": "0x401433126f9225711f061abbedb0b53a894105ab52ca102d50b8b79a4c7f2d83",
      "transactionIndex": "0xb8",
      "blockHash": "0x39aa52295eb92ee3de7358f109ab1fec8f3158423cd5fffd782a46c91ec726fc",
      "blockNumber": "0x1dbf15f",
      "gasUsed": "0x6066",
      "effectiveGasPrice": "0xe30b6",
      "from": "0xdb816889f2a7362ef242e5a717dfd5b38ae849fe",
      "to": "0x3f19e98ce7a5b28427d9923bb304032c2a04364a",
      "contractAddress": null,
      "l1BaseFeeScalar": "0x8dd",
      "l1BlobBaseFee": "0x1",
      "l1BlobBaseFeeScalar": "0x101c12",
      "l1Fee": "0xd647a74b",
      "l1GasPrice": "0x3b0615b6",
      "l1GasUsed": "0x640"
    }
  ],
  "libraries": [],
  "pending": [],
  "returns": {},
  "timestamp": 1749172133,
  "chain": 8453,
  "commit": "7add51a"
}