{
  "transactions": [
    {
      "hash": "0x06115aa1a02fb88c242e50dfbcd78b36ea6c78114135c030aeb2c44d480262b3",
      "transactionType": "CALL",
      "contractName": null,
      "contractAddress": "0x3f19e98ce7a5b28427d9923bb304032c2a04364a",
      "function": "logMessage(string)",
      "arguments": [
        "I love indexing :)"
      ],
      "transaction": {
        "from": "0xdb816889f2a7362ef242e5a717dfd5b38ae849fe",
        "to": "0x3f19e98ce7a5b28427d9923bb304032c2a04364a",
        "gas": "0x8526",
        "value": "0x0",
        "input": "0x7c9900520000000000000000000000000000000000000000000000000000000000000020000000000000000000000000000000000000000000000000000000000000001249206c6f766520696e646578696e67203a290000000000000000000000000000",
        "nonce": "0x28",
        "chainId": "0x2105"
      },
      "additionalContracts": [],
      "isFixedGasLimit": false
    }
  ],
  "receipts": [
    {
      "status": "0x1",
      "cumulativeGasUsed": "0x324a47e",
      "logs": [
        {
          "address": "0x3f19e98ce7a5b28427d9923bb304032c2a04364a",
          "topics": [
            "0x4bba44446aea2a9f27db36c95346239fd392bf3a497349684a3890d0d764077d",
            "0x000000000000000000000000db816889f2a7362ef242e5a717dfd5b38ae849fe"
          ],
          "data": "0x00000000000000000000000000000000000000000000000000000000000000400000000000000000000000000000000000000000000000000000000068424681000000000000000000000000000000000000000000000000000000000000001249206c6f766520696e646578696e67203a290000000000000000000000000000",
          "blockHash": "0x3952a20dfb5ee81b6c170a960af5cd47b92c1d4359d61cdadfa445ef082b80da",
          "blockNumber": "0x1dbf4cf",
          "blockTimestamp": "0x68424681",
          "transactionHash": "0x06115aa1a02fb88c242e50dfbcd78b36ea6c78114135c030aeb2c44d480262b3",
          "transactionIndex": "0xd0",
          "logIndex": "0x3e9",
          "removed": false
        }
      ],
      "logsBloom": "0x00800000000000000000000000000000000000000000000000000000000000000000000000800000000000000000000000000000000000000000000000000004000000000000000000000000000000000002000000000000000000000400000000000000000000000000000000000080000000000000000000000000000000000000000000080000000000000000000000000000000000000000000000000000000000000002000000000000000000000000000000000000000000000000000000000000000000000000000000000000000000000000000000000000000000000000000000000000000000200000000000000000000000000000000000000000",
      "type": "0x2",
      "transactionHash": "0x06115aa1a02fb88c242e50dfbcd78b36ea6c78114135c030aeb2c44d480262b3",
      "transactionIndex": "0xd0",
      "blockHash": "0x3952a20dfb5ee81b6c170a960af5cd47b92c1d4359d61cdadfa445ef082b80da",
      "blockNumber": "0x1dbf4cf",
      "gasUsed": "0x6066",
      "effectiveGasPrice": "0x85537",
      "from": "0xdb816889f2a7362ef242e5a717dfd5b38ae849fe",
      "to": "0x3f19e98ce7a5b28427d9923bb304032c2a04364a",
      "contractAddress": null,
      "l1BaseFeeScalar": "0x8dd",
      "l1BlobBaseFee": "0x1",
      "l1BlobBaseFeeScalar": "0x101c12",
      "l1Fee": "0xd8107f00",
      "l1GasPrice": "0x3b83ec43",
      "l1GasUsed": "0x640"
    }
  ],
  "libraries": [],
  "pending": [],
  "returns": {},
  "timestamp": 1749173895,
  "chain": 8453,
  "commit": "7add51a"
}