{
  "transactions": [
    {
      "hash": "0xa294896719fa4713922c883206f38b49580cd41d8b4ef31b0b9bd832b0416831",
      "transactionType": "CALL",
      "contractName": null,
      "contractAddress": "0xc6549dbc8f93dfb6441968140a36a49a7f11cb18",
      "function": "logMessage(string)",
      "arguments": [
        "I love indexing :)"
      ],
      "transaction": {
        "from": "0xdb816889f2a7362ef242e5a717dfd5b38ae849fe",
        "to": "0xc6549dbc8f93dfb6441968140a36a49a7f11cb18",
        "gas": "0x8526",
        "value": "0x0",
        "input": "0x7c9900520000000000000000000000000000000000000000000000000000000000000020000000000000000000000000000000000000000000000000000000000000001249206c6f766520696e646578696e67203a290000000000000000000000000000",
        "nonce": "0x20",
        "chainId": "0x2105"
      },
      "additionalContracts": [],
      "isFixedGasLimit": false
    }
  ],
  "receipts": [
    {
      "status": "0x1",
      "cumulativeGasUsed": "0x21834f3",
      "logs": [
        {
          "address": "0xc6549dbc8f93dfb6441968140a36a49a7f11cb18",
          "topics": [
            "0x4bba44446aea2a9f27db36c95346239fd392bf3a497349684a3890d0d764077d",
            "0x000000000000000000000000db816889f2a7362ef242e5a717dfd5b38ae849fe"
          ],
          "data": "0x0000000000000000000000000000000000000000000000000000000000000040000000000000000000000000000000000000000000000000000000006841fe63000000000000000000000000000000000000000000000000000000000000001249206c6f766520696e646578696e67203a290000000000000000000000000000",
          "blockHash": "0x7ac176334a21480f2925b6a6f8d119b8a32bb8823b6b765db33f9ccf5d17537f",
          "blockNumber": "0x1dbd0c0",
          "blockTimestamp": "0x6841fe63",
          "transactionHash": "0xa294896719fa4713922c883206f38b49580cd41d8b4ef31b0b9bd832b0416831",
          "transactionIndex": "0xf1",
          "logIndex": "0x1c3",
          "removed": false
        }
      ],
      "logsBloom": "0x00800000000000000000000000000000000000000000000000000000000000000000000080800000000000000000000000000080000000000000000000000000000000000000000000000000000000000000000000000000000000000400000000000000000000000000000000000080000000000000000000000000000000000000000000080000000000000000000000000000000000000000000000000000000000000002000000000000000000000000000000000000000000000000000000000000000000000000000000000000400000000000000000000000000000000000000000000000000000000000000000000000000000000000000000000000",
      "type": "0x2",
      "transactionHash": "0xa294896719fa4713922c883206f38b49580cd41d8b4ef31b0b9bd832b0416831",
      "transactionIndex": "0xf1",
      "blockHash": "0x7ac176334a21480f2925b6a6f8d119b8a32bb8823b6b765db33f9ccf5d17537f",
      "blockNumber": "0x1dbd0c0",
      "gasUsed": "0x6066",
      "effectiveGasPrice": "0xb9ef48",
      "from": "0xdb816889f2a7362ef242e5a717dfd5b38ae849fe",
      "to": "0xc6549dbc8f93dfb6441968140a36a49a7f11cb18",
      "contractAddress": null,
      "l1BaseFeeScalar": "0x8dd",
      "l1BlobBaseFee": "0x1",
      "l1BlobBaseFeeScalar": "0x101c12",
      "l1Fee": "0xfafbe148d",
      "l1GasPrice": "0x45224acc1",
      "l1GasUsed": "0x640"
    }
  ],
  "libraries": [],
  "pending": [],
  "returns": {},
  "timestamp": 1749155431,
  "chain": 8453,
  "commit": "7add51a"
}