{
  "transactions": [
    {
      "hash": "0xb5532f5fa30d61f4a7dcae00a3b3e6259589d434c04b0eb5649b7149dcad4438",
      "transactionType": "CALL",
      "contractName": null,
      "contractAddress": "0x3f19e98ce7a5b28427d9923bb304032c2a04364a",
      "function": "logMessage(string)",
      "arguments": [
        "I love indexing :)"
      ],
      "transaction": {
        "from": "0xdb816889f2a7362ef242e5a717dfd5b38ae849fe",
        "to": "0x3f19e98ce7a5b28427d9923bb304032c2a04364a",
        "gas": "0x8526",
        "value": "0x0",
        "input": "0x7c9900520000000000000000000000000000000000000000000000000000000000000020000000000000000000000000000000000000000000000000000000000000001249206c6f766520696e646578696e67203a290000000000000000000000000000",
        "nonce": "0x26",
        "chainId": "0x2105"
      },
      "additionalContracts": [],
      "isFixedGasLimit": false
    }
  ],
  "receipts": [
    {
      "status": "0x1",
      "cumulativeGasUsed": "0x2f3da01",
      "logs": [
        {
          "address": "0x3f19e98ce7a5b28427d9923bb304032c2a04364a",
          "topics": [
            "0x4bba44446aea2a9f27db36c95346239fd392bf3a497349684a3890d0d764077d",
            "0x000000000000000000000000db816889f2a7362ef242e5a717dfd5b38ae849fe"
          ],
          "data": "0x00000000000000000000000000000000000000000000000000000000000000400000000000000000000000000000000000000000000000000000000068424581000000000000000000000000000000000000000000000000000000000000001249206c6f766520696e646578696e67203a290000000000000000000000000000",
          "blockHash": "0x04307975d9d4fc148d7cc54ac1082bf60105c0ad7182c2d38f0fc04a1c9cf232",
          "blockNumber": "0x1dbf44f",
          "blockTimestamp": "0x68424581",
          "transactionHash": "0xb5532f5fa30d61f4a7dcae00a3b3e6259589d434c04b0eb5649b7149dcad4438",
          "transactionIndex": "0xdc",
          "logIndex": "0x240",
          "removed": false
        }
      ],
      "logsBloom": "0x00800000000000000000000000000000000000000000000000000000000000000000000000800000000000000000000000000000000000000000000000000004000000000000000000000000000000000002000000000000000000000400000000000000000000000000000000000080000000000000000000000000000000000000000000080000000000000000000000000000000000000000000000000000000000000002000000000000000000000000000000000000000000000000000000000000000000000000000000000000000000000000000000000000000000000000000000000000000000200000000000000000000000000000000000000000",
      "type": "0x2",
      "transactionHash": "0xb5532f5fa30d61f4a7dcae00a3b3e6259589d434c04b0eb5649b7149dcad4438",
      "transactionIndex": "0xdc",
      "blockHash": "0x04307975d9d4fc148d7cc54ac1082bf60105c0ad7182c2d38f0fc04a1c9cf232",
      "blockNumber": "0x1dbf44f",
      "gasUsed": "0x6066",
      "effectiveGasPrice": "0x9f801",
      "from": "0xdb816889f2a7362ef242e5a717dfd5b38ae849fe",
      "to": "0x3f19e98ce7a5b28427d9923bb304032c2a04364a",
      "contractAddress": null,
      "l1BaseFeeScalar": "0x8dd",
      "l1BlobBaseFee": "0x1",
      "l1BlobBaseFeeScalar": "0x101c12",
      "l1Fee": "0xc7bb4b32",
      "l1GasPrice": "0x37043414",
      "l1GasUsed": "0x640"
    }
  ],
  "libraries": [],
  "pending": [],
  "returns": {},
  "timestamp": 1749173638,
  "chain": 8453,
  "commit": "7add51a"
}