{
  "transactions": [
    {
      "hash": "0x42d7cf58f3f41bc14a5edb139ee9033b623265287e40b38f94118aaac3cfbf7a",
      "transactionType": "CALL",
      "contractName": null,
      "contractAddress": "0xa8b2ab19cd3be063dc93d23668c13aff25a19e1f",
      "function": "logMessage(string)",
      "arguments": [
        "Indexing is cool :)"
      ],
      "transaction": {
        "from": "0xdb816889f2a7362ef242e5a717dfd5b38ae849fe",
        "to": "0xa8b2ab19cd3be063dc93d23668c13aff25a19e1f",
        "gas": "0x8d0c",
        "value": "0x0",
        "input": "0x7c99005200000000000000000000000000000000000000000000000000000000000000200000000000000000000000000000000000000000000000000000000000000013496e646578696e6720697320636f6f6c203a2900000000000000000000000000",
        "nonce": "0x2a",
        "chainId": "0x2105"
      },
      "additionalContracts": [],
      "isFixedGasLimit": false
    }
  ],
  "receipts": [
    {
      "status": "0x1",
      "cumulativeGasUsed": "0x2ff1a90",
      "logs": [
        {
          "address": "0xa8b2ab19cd3be063dc93d23668c13aff25a19e1f",
          "topics": [
            "0x4bba44446aea2a9f27db36c95346239fd392bf3a497349684a3890d0d764077d",
            "0x000000000000000000000000db816889f2a7362ef242e5a717dfd5b38ae849fe"
          ],
          "data": "0x00000000000000000000000000000000000000000000000000000000000000400000000000000000000000000000000000000000000000000000000068424bb30000000000000000000000000000000000000000000000000000000000000013496e646578696e6720697320636f6f6c203a2900000000000000000000000000",
          "blockHash": "0xc8a4401cb0167065cdeec0ff3a3f0548e30c139db80ecb24d78dc5f84bc31e51",
          "blockNumber": "0x1dbf768",
          "blockTimestamp": "0x68424bb3",
          "transactionHash": "0x42d7cf58f3f41bc14a5edb139ee9033b623265287e40b38f94118aaac3cfbf7a",
          "transactionIndex": "0xbe",
          "logIndex": "0x2cc",
          "removed": false
        }
      ],
      "logsBloom": "0x00800000000000000008000000000000000000000000000000000000000000000000000000800000000000000000000000000000000000000000000000000000000000000000000000000008000000000000000000000000000000000400000000000000000000000000000000000080000000000000000800000000000000000000000000080000000000000000000000000000000000000000000000000000000000000002000000000000000000000000000000000000000000000000000000000000000000000000000000000000000000000000000000000000000000000000000000000000000000000000000000000000000000000000000000000000",
      "type": "0x2",
      "transactionHash": "0x42d7cf58f3f41bc14a5edb139ee9033b623265287e40b38f94118aaac3cfbf7a",
      "transactionIndex": "0xbe",
      "blockHash": "0xc8a4401cb0167065cdeec0ff3a3f0548e30c139db80ecb24d78dc5f84bc31e51",
      "blockNumber": "0x1dbf768",
      "gasUsed": "0x6072",
      "effectiveGasPrice": "0xa27db",
      "from": "0xdb816889f2a7362ef242e5a717dfd5b38ae849fe",
      "to": "0xa8b2ab19cd3be063dc93d23668c13aff25a19e1f",
      "contractAddress": null,
      "l1BaseFeeScalar": "0x8dd",
      "l1BlobBaseFee": "0x1",
      "l1BlobBaseFeeScalar": "0x101c12",
      "l1Fee": "0xb56d474b",
      "l1GasPrice": "0x31f96eb0",
      "l1GasUsed": "0x640"
    }
  ],
  "libraries": [],
  "pending": [],
  "returns": {},
  "timestamp": 1749175223,
  "chain": 8453,
  "commit": "177170f"
}