{
  "transactions": [
    {
      "hash": "0x6bad119e6c61cc53fa88dc20fd40075f0a219a8564536e06cbcaf750ca1118e0",
      "transactionType": "CALL",
      "contractName": null,
      "contractAddress": "0xa8b2ab19cd3be063dc93d23668c13aff25a19e1f",
      "function": "logMessage(string)",
      "arguments": [
        "Super cool indexer! :)"
      ],
      "transaction": {
        "from": "0xdb816889f2a7362ef242e5a717dfd5b38ae849fe",
        "to": "0xa8b2ab19cd3be063dc93d23668c13aff25a19e1f",
        "gas": "0x8568",
        "value": "0x0",
        "input": "0x7c99005200000000000000000000000000000000000000000000000000000000000000200000000000000000000000000000000000000000000000000000000000000016537570657220636f6f6c20696e646578657221203a2900000000000000000000",
        "nonce": "0x2e",
        "chainId": "0x2105"
      },
      "additionalContracts": [],
      "isFixedGasLimit": false
    }
  ],
  "receipts": [
    {
      "status": "0x1",
      "cumulativeGasUsed": "0x5410bbc",
      "logs": [
        {
          "address": "0xa8b2ab19cd3be063dc93d23668c13aff25a19e1f",
          "topics": [
            "0x4bba44446aea2a9f27db36c95346239fd392bf3a497349684a3890d0d764077d",
            "0x000000000000000000000000db816889f2a7362ef242e5a717dfd5b38ae849fe"
          ],
          "data": "0x00000000000000000000000000000000000000000000000000000000000000400000000000000000000000000000000000000000000000000000000068424dcb0000000000000000000000000000000000000000000000000000000000000016537570657220636f6f6c20696e646578657221203a2900000000000000000000",
          "blockHash": "0xa77137ff5d954fd83162ff769451d459825e0ba4661bde0db7072b1c95519809",
          "blockNumber": "0x1dbf874",
          "blockTimestamp": "0x68424dcb",
          "transactionHash": "0x6bad119e6c61cc53fa88dc20fd40075f0a219a8564536e06cbcaf750ca1118e0",
          "transactionIndex": "0x160",
          "logIndex": "0xbe0",
          "removed": false
        }
      ],
      "logsBloom": "0x00800000000000000008000000000000000000000000000000000000000000000000000000800000000000000000000000000000000000000000000000000000000000000000000000000008000000000000000000000000000000000400000000000000000000000000000000000080000000000000000800000000000000000000000000080000000000000000000000000000000000000000000000000000000000000002000000000000000000000000000000000000000000000000000000000000000000000000000000000000000000000000000000000000000000000000000000000000000000000000000000000000000000000000000000000000",
      "type": "0x2",
      "transactionHash": "0x6bad119e6c61cc53fa88dc20fd40075f0a219a8564536e06cbcaf750ca1118e0",
      "transactionIndex": "0x160",
      "blockHash": "0xa77137ff5d954fd83162ff769451d459825e0ba4661bde0db7072b1c95519809",
      "blockNumber": "0x1dbf874",
      "gasUsed": "0x6096",
      "effectiveGasPrice": "0x76979",
      "from": "0xdb816889f2a7362ef242e5a717dfd5b38ae849fe",
      "to": "0xa8b2ab19cd3be063dc93d23668c13aff25a19e1f",
      "contractAddress": null,
      "l1BaseFeeScalar": "0x8dd",
      "l1BlobBaseFee": "0x1",
      "l1BlobBaseFeeScalar": "0x101c12",
      "l1Fee": "0xb59547e3",
      "l1GasPrice": "0x3204737a",
      "l1GasUsed": "0x640"
    }
  ],
  "libraries": [],
  "pending": [],
  "returns": {},
  "timestamp": 1749175760,
  "chain": 8453,
  "commit": "177170f"
}