{
  "transactions": [
    {
      "hash": "0x065b74354201765f5590ead341c8aa824d75bdeaceb296e4221eee0af0b0bdf5",
      "transactionType": "CALL",
      "contractName": null,
      "contractAddress": "0x2077a5dd73412e7c4c2ae6e94d1e853cc69aaf29",
      "function": "logMessage(string)",
      "arguments": [
        "I love indexing :)"
      ],
      "transaction": {
        "from": "0xdb816889f2a7362ef242e5a717dfd5b38ae849fe",
        "to": "0x2077a5dd73412e7c4c2ae6e94d1e853cc69aaf29",
        "gas": "0x8526",
        "value": "0x0",
        "input": "0x7c9900520000000000000000000000000000000000000000000000000000000000000020000000000000000000000000000000000000000000000000000000000000001249206c6f766520696e646578696e67203a290000000000000000000000000000",
        "nonce": "0x16",
        "chainId": "0x2105"
      },
      "additionalContracts": [],
      "isFixedGasLimit": false
    }
  ],
  "receipts": [
    {
      "status": "0x1",
      "cumulativeGasUsed": "0x31eeec2",
      "logs": [
        {
          "address": "0x2077a5dd73412e7c4c2ae6e94d1e853cc69aaf29",
          "topics": [
            "0x48e0bad32e808d60724259c1b17e81793c5b12c147bea07e23a81b29285df066",
            "0x000000000000000000000000db816889f2a7362ef242e5a717dfd5b38ae849fe"
          ],
          "data": "0x0000000000000000000000000000000000000000000000000000000000000040000000000000000000000000000000000000000000000000000000006841f70b000000000000000000000000000000000000000000000000000000000000001249206c6f766520696e646578696e67203a290000000000000000000000000000",
          "blockHash": "0x26ab860c34dfbf363421998f6d9565afcc9bb7d89b236437dbcd741270251662",
          "blockNumber": "0x1dbcd14",
          "blockTimestamp": "0x6841f70b",
          "transactionHash": "0x065b74354201765f5590ead341c8aa824d75bdeaceb296e4221eee0af0b0bdf5",
          "transactionIndex": "0xe7",
          "logIndex": "0x286",
          "removed": false
        }
      ],
      "logsBloom": "0x00800000000000000000020000000000000000000000000000000000000000000001000000000800000000000000000000000000000000000000000000000000000000000000000000000000000000000000000000000000000000000000000000008000000000000000000000000000000000000000000000000000000000000000000000080000000000000000000000000000000000000000000000000000000000000002000000000000000000000000000000000000000000000000000000000000000000000000000000000000000000000000000000000000000008000000000000000000000000000000000000000010000000000000000000000000",
      "type": "0x2",
      "transactionHash": "0x065b74354201765f5590ead341c8aa824d75bdeaceb296e4221eee0af0b0bdf5",
      "transactionIndex": "0xe7",
      "blockHash": "0x26ab860c34dfbf363421998f6d9565afcc9bb7d89b236437dbcd741270251662",
      "blockNumber": "0x1dbcd14",
      "gasUsed": "0x6066",
      "effectiveGasPrice": "0x110363",
      "from": "0xdb816889f2a7362ef242e5a717dfd5b38ae849fe",
      "to": "0x2077a5dd73412e7c4c2ae6e94d1e853cc69aaf29",
      "contractAddress": null,
      "l1BaseFeeScalar": "0x8dd",
      "l1BlobBaseFee": "0x1",
      "l1BlobBaseFeeScalar": "0x101c12",
      "l1Fee": "0x66a75cdd1",
      "l1GasPrice": "0x1c46b2398",
      "l1GasUsed": "0x640"
    }
  ],
  "libraries": [],
  "pending": [],
  "returns": {},
  "timestamp": 1749153552,
  "chain": 8453,
  "commit": "3337557"
}