{
  "transactions": [
    {
      "hash": "0x7ed642f561a8d959637ae255c815bbb4d63c75c2c6e661540220ea10635fa4e3",
      "transactionType": "CALL",
      "contractName": null,
      "contractAddress": "0x2077a5dd73412e7c4c2ae6e94d1e853cc69aaf29",
      "function": "logMessage(string)",
      "arguments": [
        "I love indexing :)"
      ],
      "transaction": {
        "from": "0xdb816889f2a7362ef242e5a717dfd5b38ae849fe",
        "to": "0x2077a5dd73412e7c4c2ae6e94d1e853cc69aaf29",
        "gas": "0x8526",
        "value": "0x0",
        "input": "0x7c9900520000000000000000000000000000000000000000000000000000000000000020000000000000000000000000000000000000000000000000000000000000001249206c6f766520696e646578696e67203a290000000000000000000000000000",
        "nonce": "0x17",
        "chainId": "0x2105"
      },
      "additionalContracts": [],
      "isFixedGasLimit": false
    }
  ],
  "receipts": [
    {
      "status": "0x1",
      "cumulativeGasUsed": "0x4684de2",
      "logs": [
        {
          "address": "0x2077a5dd73412e7c4c2ae6e94d1e853cc69aaf29",
          "topics": [
            "0x48e0bad32e808d60724259c1b17e81793c5b12c147bea07e23a81b29285df066",
            "0x000000000000000000000000db816889f2a7362ef242e5a717dfd5b38ae849fe"
          ],
          "data": "0x0000000000000000000000000000000000000000000000000000000000000040000000000000000000000000000000000000000000000000000000006841f7d3000000000000000000000000000000000000000000000000000000000000001249206c6f766520696e646578696e67203a290000000000000000000000000000",
          "blockHash": "0x9a08260f0e6e4298ace5cf1f56d3308b8bfd702309dca04386f237cd523ad2a7",
          "blockNumber": "0x1dbcd78",
          "blockTimestamp": "0x6841f7d3",
          "transactionHash": "0x7ed642f561a8d959637ae255c815bbb4d63c75c2c6e661540220ea10635fa4e3",
          "transactionIndex": "0x1bf",
          "logIndex": "0x2ab",
          "removed": false
        }
      ],
      "logsBloom": "0x00800000000000000000020000000000000000000000000000000000000000000001000000000800000000000000000000000000000000000000000000000000000000000000000000000000000000000000000000000000000000000000000000008000000000000000000000000000000000000000000000000000000000000000000000080000000000000000000000000000000000000000000000000000000000000002000000000000000000000000000000000000000000000000000000000000000000000000000000000000000000000000000000000000000008000000000000000000000000000000000000000010000000000000000000000000",
      "type": "0x2",
      "transactionHash": "0x7ed642f561a8d959637ae255c815bbb4d63c75c2c6e661540220ea10635fa4e3",
      "transactionIndex": "0x1bf",
      "blockHash": "0x9a08260f0e6e4298ace5cf1f56d3308b8bfd702309dca04386f237cd523ad2a7",
      "blockNumber": "0x1dbcd78",
      "gasUsed": "0x6066",
      "effectiveGasPrice": "0x18ef48",
      "from": "0xdb816889f2a7362ef242e5a717dfd5b38ae849fe",
      "to": "0x2077a5dd73412e7c4c2ae6e94d1e853cc69aaf29",
      "contractAddress": null,
      "l1BaseFeeScalar": "0x8dd",
      "l1BlobBaseFee": "0x1",
      "l1BlobBaseFeeScalar": "0x101c12",
      "l1Fee": "0x6c2755606",
      "l1GasPrice": "0x1dca86310",
      "l1GasUsed": "0x640"
    }
  ],
  "libraries": [],
  "pending": [],
  "returns": {},
  "timestamp": 1749153751,
  "chain": 8453,
  "commit": "3337557"
}