{
  "transactions": [
    {
      "hash": "0x3eccc3dbb1365af38fe402ff8a5184ad2d6f91036fd37c88d87f2ab16ab155ef",
      "transactionType": "CALL",
      "contractName": null,
      "contractAddress": "0xa8b2ab19cd3be063dc93d23668c13aff25a19e1f",
      "function": "logMessage(string)",
      "arguments": [
        "Indexing is cool :)"
      ],
      "transaction": {
        "from": "0xdb816889f2a7362ef242e5a717dfd5b38ae849fe",
        "to": "0xa8b2ab19cd3be063dc93d23668c13aff25a19e1f",
        "gas": "0x8d0c",
        "value": "0x0",
        "input": "0x7c99005200000000000000000000000000000000000000000000000000000000000000200000000000000000000000000000000000000000000000000000000000000013496e646578696e6720697320636f6f6c203a2900000000000000000000000000",
        "nonce": "0x2c",
        "chainId": "0x2105"
      },
      "additionalContracts": [],
      "isFixedGasLimit": false
    }
  ],
  "receipts": [
    {
      "status": "0x1",
      "cumulativeGasUsed": "0x399a413",
      "logs": [
        {
          "address": "0xa8b2ab19cd3be063dc93d23668c13aff25a19e1f",
          "topics": [
            "0x4bba44446aea2a9f27db36c95346239fd392bf3a497349684a3890d0d764077d",
            "0x000000000000000000000000db816889f2a7362ef242e5a717dfd5b38ae849fe"
          ],
          "data": "0x00000000000000000000000000000000000000000000000000000000000000400000000000000000000000000000000000000000000000000000000068424d410000000000000000000000000000000000000000000000000000000000000013496e646578696e6720697320636f6f6c203a2900000000000000000000000000",
          "blockHash": "0x863972771a211933e35374d18e0762e653a9bb7a60aa5aa8f89cd40e432ecd37",
          "blockNumber": "0x1dbf82f",
          "blockTimestamp": "0x68424d41",
          "transactionHash": "0x3eccc3dbb1365af38fe402ff8a5184ad2d6f91036fd37c88d87f2ab16ab155ef",
          "transactionIndex": "0x109",
          "logIndex": "0x624",
          "removed": false
        }
      ],
      "logsBloom": "0x00800000000000000008000000000000000000000000000000000000000000000000000000800000000000000000000000000000000000000000000000000000000000000000000000000008000000000000000000000000000000000400000000000000000000000000000000000080000000000000000800000000000000000000000000080000000000000000000000000000000000000000000000000000000000000002000000000000000000000000000000000000000000000000000000000000000000000000000000000000000000000000000000000000000000000000000000000000000000000000000000000000000000000000000000000000",
      "type": "0x2",
      "transactionHash": "0x3eccc3dbb1365af38fe402ff8a5184ad2d6f91036fd37c88d87f2ab16ab155ef",
      "transactionIndex": "0x109",
      "blockHash": "0x863972771a211933e35374d18e0762e653a9bb7a60aa5aa8f89cd40e432ecd37",
      "blockNumber": "0x1dbf82f",
      "gasUsed": "0x6072",
      "effectiveGasPrice": "0x6c3d9",
      "from": "0xdb816889f2a7362ef242e5a717dfd5b38ae849fe",
      "to": "0xa8b2ab19cd3be063dc93d23668c13aff25a19e1f",
      "contractAddress": null,
      "l1BaseFeeScalar": "0x8dd",
      "l1BlobBaseFee": "0x1",
      "l1BlobBaseFeeScalar": "0x101c12",
      "l1Fee": "0xcb030e3a",
      "l1GasPrice": "0x37eb846d",
      "l1GasUsed": "0x640"
    }
  ],
  "libraries": [],
  "pending": [],
  "returns": {},
  "timestamp": 1749175622,
  "chain": 8453,
  "commit": "177170f"
}