{
  "transactions": [
    {
      "hash": "0x85aa0b000782091b2d2a3f6f5ef9dbb15c7085ea0932f173c9c4655bc40a0ff8",
      "transactionType": "CALL",
      "contractName": null,
      "contractAddress": "0x3f19e98ce7a5b28427d9923bb304032c2a04364a",
      "function": "logMessage(string)",
      "arguments": [
        "I love indexing :)"
      ],
      "transaction": {
        "from": "0xdb816889f2a7362ef242e5a717dfd5b38ae849fe",
        "to": "0x3f19e98ce7a5b28427d9923bb304032c2a04364a",
        "gas": "0x8526",
        "value": "0x0",
        "input": "0x7c9900520000000000000000000000000000000000000000000000000000000000000020000000000000000000000000000000000000000000000000000000000000001249206c6f766520696e646578696e67203a290000000000000000000000000000",
        "nonce": "0x22",
        "chainId": "0x2105"
      },
      "additionalContracts": [],
      "isFixedGasLimit": false
    }
  ],
  "receipts": [
    {
      "status": "0x1",
      "cumulativeGasUsed": "0x39e7168",
      "logs": [
        {
          "address": "0x3f19e98ce7a5b28427d9923bb304032c2a04364a",
          "topics": [
            "0x4bba44446aea2a9f27db36c95346239fd392bf3a497349684a3890d0d764077d",
            "0x000000000000000000000000db816889f2a7362ef242e5a717dfd5b38ae849fe"
          ],
          "data": "0x0000000000000000000000000000000000000000000000000000000000000040000000000000000000000000000000000000000000000000000000006842059f000000000000000000000000000000000000000000000000000000000000001249206c6f766520696e646578696e67203a290000000000000000000000000000",
          "blockHash": "0xedd0963a4d75ab69c94e40aa62a4a65d81230ff7abc73189c1c157b407e099f6",
          "blockNumber": "0x1dbd45e",
          "blockTimestamp": "0x6842059f",
          "transactionHash": "0x85aa0b000782091b2d2a3f6f5ef9dbb15c7085ea0932f173c9c4655bc40a0ff8",
          "transactionIndex": "0x1cf",
          "logIndex": "0x221",
          "removed": false
        }
      ],
      "logsBloom": "0x00800000000000000000000000000000000000000000000000000000000000000000000000800000000000000000000000000000000000000000000000000004000000000000000000000000000000000002000000000000000000000400000000000000000000000000000000000080000000000000000000000000000000000000000000080000000000000000000000000000000000000000000000000000000000000002000000000000000000000000000000000000000000000000000000000000000000000000000000000000000000000000000000000000000000000000000000000000000000200000000000000000000000000000000000000000",
      "type": "0x2",
      "transactionHash": "0x85aa0b000782091b2d2a3f6f5ef9dbb15c7085ea0932f173c9c4655bc40a0ff8",
      "transactionIndex": "0x1cf",
      "blockHash": "0xedd0963a4d75ab69c94e40aa62a4a65d81230ff7abc73189c1c157b407e099f6",
      "blockNumber": "0x1dbd45e",
      "gasUsed": "0x6066",
      "effectiveGasPrice": "0x2eb3401",
      "from": "0xdb816889f2a7362ef242e5a717dfd5b38ae849fe",
      "to": "0x3f19e98ce7a5b28427d9923bb304032c2a04364a",
      "contractAddress": null,
      "l1BaseFeeScalar": "0x8dd",
      "l1BlobBaseFee": "0x1",
      "l1BlobBaseFeeScalar": "0x101c12",
      "l1Fee": "0x126698c2e6",
      "l1GasPrice": "0x5118ac4dc",
      "l1GasUsed": "0x640"
    }
  ],
  "libraries": [],
  "pending": [],
  "returns": {},
  "timestamp": 1749157284,
  "chain": 8453,
  "commit": "7add51a"
}