{
  "transactions": [
    {
      "hash": "0x8bf2a6bba7d20de8934ba11ed1b4e571b2fbd5b88a77b51ef85b47ac0b23a44d",
      "transactionType": "CALL",
      "contractName": null,
      "contractAddress": "0x2077a5dd73412e7c4c2ae6e94d1e853cc69aaf29",
      "function": "logMessage(string)",
      "arguments": [
        "I love indexing :)"
      ],
      "transaction": {
        "from": "0xdb816889f2a7362ef242e5a717dfd5b38ae849fe",
        "to": "0x2077a5dd73412e7c4c2ae6e94d1e853cc69aaf29",
        "gas": "0x8526",
        "value": "0x0",
        "input": "0x7c9900520000000000000000000000000000000000000000000000000000000000000020000000000000000000000000000000000000000000000000000000000000001249206c6f766520696e646578696e67203a290000000000000000000000000000",
        "nonce": "0x18",
        "chainId": "0x2105"
      },
      "additionalContracts": [],
      "isFixedGasLimit": false
    }
  ],
  "receipts": [
    {
      "status": "0x1",
      "cumulativeGasUsed": "0x2a13522",
      "logs": [
        {
          "address": "0x2077a5dd73412e7c4c2ae6e94d1e853cc69aaf29",
          "topics": [
            "0x48e0bad32e808d60724259c1b17e81793c5b12c147bea07e23a81b29285df066",
            "0x000000000000000000000000db816889f2a7362ef242e5a717dfd5b38ae849fe"
          ],
          "data": "0x0000000000000000000000000000000000000000000000000000000000000040000000000000000000000000000000000000000000000000000000006841f807000000000000000000000000000000000000000000000000000000000000001249206c6f766520696e646578696e67203a290000000000000000000000000000",
          "blockHash": "0x8c88080853014908060cf43e545fa2ccf11549de4c717a0e10f2dc03d5def8f7",
          "blockNumber": "0x1dbcd92",
          "blockTimestamp": "0x6841f807",
          "transactionHash": "0x8bf2a6bba7d20de8934ba11ed1b4e571b2fbd5b88a77b51ef85b47ac0b23a44d",
          "transactionIndex": "0x91",
          "logIndex": "0x224",
          "removed": false
        }
      ],
      "logsBloom": "0x00800000000000000000020000000000000000000000000000000000000000000001000000000800000000000000000000000000000000000000000000000000000000000000000000000000000000000000000000000000000000000000000000008000000000000000000000000000000000000000000000000000000000000000000000080000000000000000000000000000000000000000000000000000000000000002000000000000000000000000000000000000000000000000000000000000000000000000000000000000000000000000000000000000000008000000000000000000000000000000000000000010000000000000000000000000",
      "type": "0x2",
      "transactionHash": "0x8bf2a6bba7d20de8934ba11ed1b4e571b2fbd5b88a77b51ef85b47ac0b23a44d",
      "transactionIndex": "0x91",
      "blockHash": "0x8c88080853014908060cf43e545fa2ccf11549de4c717a0e10f2dc03d5def8f7",
      "blockNumber": "0x1dbcd92",
      "gasUsed": "0x6066",
      "effectiveGasPrice": "0x1455f1",
      "from": "0xdb816889f2a7362ef242e5a717dfd5b38ae849fe",
      "to": "0x2077a5dd73412e7c4c2ae6e94d1e853cc69aaf29",
      "contractAddress": null,
      "l1BaseFeeScalar": "0x8dd",
      "l1BlobBaseFee": "0x1",
      "l1BlobBaseFeeScalar": "0x101c12",
      "l1Fee": "0x6f57a12d5",
      "l1GasPrice": "0x1eab5fd67",
      "l1GasUsed": "0x640"
    }
  ],
  "libraries": [],
  "pending": [],
  "returns": {},
  "timestamp": 1749153803,
  "chain": 8453,
  "commit": "3337557"
}