{
  "transactions": [
    {
      "hash": "0xedb1871be009ea28f93e6a172986713093726be29c47c668bfb7eb48cdc74235",
      "transactionType": "CALL",
      "contractName": null,
      "contractAddress": "0x3f19e98ce7a5b28427d9923bb304032c2a04364a",
      "function": "logMessage(string)",
      "arguments": [
        "I love indexing :)"
      ],
      "transaction": {
        "from": "0xdb816889f2a7362ef242e5a717dfd5b38ae849fe",
        "to": "0x3f19e98ce7a5b28427d9923bb304032c2a04364a",
        "gas": "0x8526",
        "value": "0x0",
        "input": "0x7c9900520000000000000000000000000000000000000000000000000000000000000020000000000000000000000000000000000000000000000000000000000000001249206c6f766520696e646578696e67203a290000000000000000000000000000",
        "nonce": "0x23",
        "chainId": "0x2105"
      },
      "additionalContracts": [],
      "isFixedGasLimit": false
    }
  ],
  "receipts": [
    {
      "status": "0x1",
      "cumulativeGasUsed": "0x2214dcd",
      "logs": [
        {
          "address": "0x3f19e98ce7a5b28427d9923bb304032c2a04364a",
          "topics": [
            "0x4bba44446aea2a9f27db36c95346239fd392bf3a497349684a3890d0d764077d",
            "0x000000000000000000000000db816889f2a7362ef242e5a717dfd5b38ae849fe"
          ],
          "data": "0x0000000000000000000000000000000000000000000000000000000000000040000000000000000000000000000000000000000000000000000000006842062f000000000000000000000000000000000000000000000000000000000000001249206c6f766520696e646578696e67203a290000000000000000000000000000",
          "blockHash": "0xcd55dd872fdc427e269178d2c6d4c6c744e380a21c03638824b6ddff1fc83664",
          "blockNumber": "0x1dbd4a6",
          "blockTimestamp": "0x6842062f",
          "transactionHash": "0xedb1871be009ea28f93e6a172986713093726be29c47c668bfb7eb48cdc74235",
          "transactionIndex": "0xed",
          "logIndex": "0x1b8",
          "removed": false
        }
      ],
      "logsBloom": "0x00800000000000000000000000000000000000000000000000000000000000000000000000800000000000000000000000000000000000000000000000000004000000000000000000000000000000000002000000000000000000000400000000000000000000000000000000000080000000000000000000000000000000000000000000080000000000000000000000000000000000000000000000000000000000000002000000000000000000000000000000000000000000000000000000000000000000000000000000000000000000000000000000000000000000000000000000000000000000200000000000000000000000000000000000000000",
      "type": "0x2",
      "transactionHash": "0xedb1871be009ea28f93e6a172986713093726be29c47c668bfb7eb48cdc74235",
      "transactionIndex": "0xed",
      "blockHash": "0xcd55dd872fdc427e269178d2c6d4c6c744e380a21c03638824b6ddff1fc83664",
      "blockNumber": "0x1dbd4a6",
      "gasUsed": "0x6066",
      "effectiveGasPrice": "0x31f1b6c",
      "from": "0xdb816889f2a7362ef242e5a717dfd5b38ae849fe",
      "to": "0x3f19e98ce7a5b28427d9923bb304032c2a04364a",
      "contractAddress": null,
      "l1BaseFeeScalar": "0x8dd",
      "l1BlobBaseFee": "0x1",
      "l1BlobBaseFeeScalar": "0x101c12",
      "l1Fee": "0x12c82925c8",
      "l1GasPrice": "0x52c6a8edd",
      "l1GasUsed": "0x640"
    }
  ],
  "libraries": [],
  "pending": [],
  "returns": {},
  "timestamp": 1749157426,
  "chain": 8453,
  "commit": "7add51a"
}