{
  "transactions": [
    {
      "hash": "0x5450eae616f335095d0ff6c95a5f2df7cf1e912e1efea10e12627253a3bdb307",
      "transactionType": "CALL",
      "contractName": null,
      "contractAddress": "0x3f19e98ce7a5b28427d9923bb304032c2a04364a",
      "function": "logMessage(string)",
      "arguments": [
        "I love indexing :)"
      ],
      "transaction": {
        "from": "0xdb816889f2a7362ef242e5a717dfd5b38ae849fe",
        "to": "0x3f19e98ce7a5b28427d9923bb304032c2a04364a",
        "gas": "0x8526",
        "value": "0x0",
        "input": "0x7c9900520000000000000000000000000000000000000000000000000000000000000020000000000000000000000000000000000000000000000000000000000000001249206c6f766520696e646578696e67203a290000000000000000000000000000",
        "nonce": "0x25",
        "chainId": "0x2105"
      },
      "additionalContracts": [],
      "isFixedGasLimit": false
    }
  ],
  "receipts": [
    {
      "status": "0x1",
      "cumulativeGasUsed": "0x272e364",
      "logs": [
        {
          "address": "0x3f19e98ce7a5b28427d9923bb304032c2a04364a",
          "topics": [
            "0x4bba44446aea2a9f27db36c95346239fd392bf3a497349684a3890d0d764077d",
            "0x000000000000000000000000db816889f2a7362ef242e5a717dfd5b38ae849fe"
          ],
          "data": "0x00000000000000000000000000000000000000000000000000000000000000400000000000000000000000000000000000000000000000000000000068424489000000000000000000000000000000000000000000000000000000000000001249206c6f766520696e646578696e67203a290000000000000000000000000000",
          "blockHash": "0xdd5c1a8686d27c3d7b0da6bf07f345b28647cdd735b41cd00c607e6f369bc606",
          "blockNumber": "0x1dbf3d3",
          "blockTimestamp": "0x68424489",
          "transactionHash": "0x5450eae616f335095d0ff6c95a5f2df7cf1e912e1efea10e12627253a3bdb307",
          "transactionIndex": "0xcc",
          "logIndex": "0x23d",
          "removed": false
        }
      ],
      "logsBloom": "0x00800000000000000000000000000000000000000000000000000000000000000000000000800000000000000000000000000000000000000000000000000004000000000000000000000000000000000002000000000000000000000400000000000000000000000000000000000080000000000000000000000000000000000000000000080000000000000000000000000000000000000000000000000000000000000002000000000000000000000000000000000000000000000000000000000000000000000000000000000000000000000000000000000000000000000000000000000000000000200000000000000000000000000000000000000000",
      "type": "0x2",
      "transactionHash": "0x5450eae616f335095d0ff6c95a5f2df7cf1e912e1efea10e12627253a3bdb307",
      "transactionIndex": "0xcc",
      "blockHash": "0xdd5c1a8686d27c3d7b0da6bf07f345b28647cdd735b41cd00c607e6f369bc606",
      "blockNumber": "0x1dbf3d3",
      "gasUsed": "0x6066",
      "effectiveGasPrice": "0xc0d62",
      "from": "0xdb816889f2a7362ef242e5a717dfd5b38ae849fe",
      "to": "0x3f19e98ce7a5b28427d9923bb304032c2a04364a",
      "contractAddress": null,
      "l1BaseFeeScalar": "0x8dd",
      "l1BlobBaseFee": "0x1",
      "l1BlobBaseFeeScalar": "0x101c12",
      "l1Fee": "0xc01a9f5e",
      "l1GasPrice": "0x34ea5635",
      "l1GasUsed": "0x640"
    }
  ],
  "libraries": [],
  "pending": [],
  "returns": {},
  "timestamp": 1749173389,
  "chain": 8453,
  "commit": "7add51a"
}